{
  "contractName": "ParkingPass",
  "abi": [
    {
      "inputs": [],
      "name": "cost",
      "outputs": [
        {
          "internalType": "uint256",
          "name": "",
          "type": "uint256"
        }
      ],
      "stateMutability": "view",
      "type": "function"
    },
    {
      "inputs": [],
      "name": "schoolAddress",
      "outputs": [
        {
          "internalType": "address payable",
          "name": "",
          "type": "address"
        }
      ],
      "stateMutability": "view",
      "type": "function"
    },
    {
      "inputs": [],
      "name": "studentAddress",
      "outputs": [
        {
          "internalType": "address",
          "name": "",
          "type": "address"
        }
      ],
      "stateMutability": "view",
      "type": "function"
    },
    {
      "inputs": [
        {
          "internalType": "address",
          "name": "_studentAddress",
          "type": "address"
        },
        {
          "internalType": "string",
          "name": "_make",
          "type": "string"
        },
        {
          "internalType": "string",
          "name": "_model",
          "type": "string"
        },
        {
          "internalType": "string",
          "name": "_licensePlate",
          "type": "string"
        },
        {
          "internalType": "uint256",
          "name": "_pass",
          "type": "uint256"
        }
      ],
      "name": "buyPass",
      "outputs": [],
      "stateMutability": "payable",
      "type": "function"
    },
    {
      "inputs": [
        {
          "internalType": "string",
          "name": "_licensePlate",
          "type": "string"
        }
      ],
      "name": "getMostRecentPass",
      "outputs": [
        {
          "internalType": "address",
          "name": "studentAddr",
          "type": "address"
        },
        {
          "internalType": "string",
          "name": "make",
          "type": "string"
        },
        {
          "internalType": "string",
          "name": "model",
          "type": "string"
        },
        {
          "internalType": "string",
          "name": "licensePlate",
          "type": "string"
        },
        {
          "internalType": "uint256",
          "name": "passType",
          "type": "uint256"
        },
        {
          "internalType": "uint256",
          "name": "expiration",
          "type": "uint256"
        }
      ],
      "stateMutability": "view",
      "type": "function"
    },
    {
      "inputs": [
        {
          "internalType": "string",
          "name": "_licensePlate",
          "type": "string"
        }
      ],
      "name": "getAllPasses",
      "outputs": [
        {
          "components": [
            {
              "internalType": "address",
              "name": "studentAddress",
              "type": "address"
            },
            {
              "internalType": "string",
              "name": "make",
              "type": "string"
            },
            {
              "internalType": "string",
              "name": "model",
              "type": "string"
            },
            {
              "internalType": "string",
              "name": "licensePlate",
              "type": "string"
            },
            {
              "internalType": "uint256",
              "name": "passType",
              "type": "uint256"
            },
            {
              "internalType": "uint256",
              "name": "expiration",
              "type": "uint256"
            }
          ],
          "internalType": "struct ParkingPass.ParkingPassInfo[]",
          "name": "",
          "type": "tuple[]"
        }
      ],
      "stateMutability": "view",
      "type": "function"
    }
  ],
  "bytecode": "0x608060405234801561001057600080fd5b506114ff806100206000396000f3fe6080604052600436106100555760003560e01c806313faede61461005a578063a50788c814610085578063a52579fc146100c2578063b8f31a8114610104578063c11c84e01461012f578063cccfc9da1461014b575b600080fd5b34801561006657600080fd5b5061006f610176565b60405161007c91906111f8565b60405180910390f35b34801561009157600080fd5b506100ac60048036038101906100a79190610d58565b61017c565b6040516100b99190611176565b60405180910390f35b3480156100ce57600080fd5b506100e960048036038101906100e49190610d58565b610419565b6040516100fb96959493929190611100565b60405180910390f35b34801561011057600080fd5b506101196106c5565b60405161012691906110ca565b60405180910390f35b61014960048036038101906101449190610c99565b6106e9565b005b34801561015757600080fd5b50610160610b4c565b60405161016d91906110e5565b60405180910390f35b60015481565b606060028260405161018e91906110b3565b9081526020016040518091039020805480602002602001604051908101604052809291908181526020016000905b8282101561040e57838290600052602060002090600602016040518060c00160405290816000820160009054906101000a900473ffffffffffffffffffffffffffffffffffffffff1673ffffffffffffffffffffffffffffffffffffffff1673ffffffffffffffffffffffffffffffffffffffff168152602001600182018054610245906113cb565b80601f0160208091040260200160405190810160405280929190818152602001828054610271906113cb565b80156102be5780601f10610293576101008083540402835291602001916102be565b820191906000526020600020905b8154815290600101906020018083116102a157829003601f168201915b505050505081526020016002820180546102d7906113cb565b80601f0160208091040260200160405190810160405280929190818152602001828054610303906113cb565b80156103505780601f1061032557610100808354040283529160200191610350565b820191906000526020600020905b81548152906001019060200180831161033357829003601f168201915b50505050508152602001600382018054610369906113cb565b80601f0160208091040260200160405190810160405280929190818152602001828054610395906113cb565b80156103e25780601f106103b7576101008083540402835291602001916103e2565b820191906000526020600020905b8154815290600101906020018083116103c557829003601f168201915b5050505050815260200160048201548152602001600582015481525050815260200190600101906101bc565b505050509050919050565b6000606080606060008060038760405161043391906110b3565b908152602001604051809103902060000160009054906101000a900473ffffffffffffffffffffffffffffffffffffffff1660038860405161047591906110b3565b908152602001604051809103902060010160038960405161049691906110b3565b908152602001604051809103902060020160038a6040516104b791906110b3565b908152602001604051809103902060030160038b6040516104d891906110b3565b90815260200160405180910390206004015460038c6040516104fa91906110b3565b908152602001604051809103902060050154848054610518906113cb565b80601f0160208091040260200160405190810160405280929190818152602001828054610544906113cb565b80156105915780601f1061056657610100808354040283529160200191610591565b820191906000526020600020905b81548152906001019060200180831161057457829003601f168201915b505050505094508380546105a4906113cb565b80601f01602080910402602001604051908101604052809291908181526020018280546105d0906113cb565b801561061d5780601f106105f25761010080835404028352916020019161061d565b820191906000526020600020905b81548152906001019060200180831161060057829003601f168201915b50505050509350828054610630906113cb565b80601f016020809104026020016040519081016040528092919081815260200182805461065c906113cb565b80156106a95780601f1061067e576101008083540402835291602001916106a9565b820191906000526020600020905b81548152906001019060200180831161068c57829003601f168201915b5050505050925095509550955095509550955091939550919395565b60008054906101000a900473ffffffffffffffffffffffffffffffffffffffff1681565b6000856000806101000a81548173ffffffffffffffffffffffffffffffffffffffff021916908373ffffffffffffffffffffffffffffffffffffffff160217905550735b38da6a701c568545dcfcb03fcb875f56beddc473ffffffffffffffffffffffffffffffffffffffff166108fc349081150290604051600060405180830381858888f19350505050158015610785573d6000803e3d6000fd5b504260038460405161079791906110b3565b908152602001604051809103902060050154106107e9576040517f08c379a00000000000000000000000000000000000000000000000000000000081526004016107e0906111b8565b60405180910390fd5b600182101580156107fb575060038211155b61083a576040517f08c379a0000000000000000000000000000000000000000000000000000000008152600401610831906111d8565b60405180910390fd5b600182141561085b57600a9050670de0b6b3a764000060018190555061089b565b600282141561087c5760149050671bc16d674ec8000060018190555061089a565b600382141561089957601e90506729a2241af62c00006001819055505b5b5b60015434146108df576040517f08c379a00000000000000000000000000000000000000000000000000000000081526004016108d690611198565b60405180910390fd5b600081426108ed91906112e5565b90506040518060c001604052808873ffffffffffffffffffffffffffffffffffffffff1681526020018781526020018681526020018581526020018481526020018281525060038560405161094291906110b3565b908152602001604051809103902060008201518160000160006101000a81548173ffffffffffffffffffffffffffffffffffffffff021916908373ffffffffffffffffffffffffffffffffffffffff16021790555060208201518160010190805190602001906109b3929190610b64565b5060408201518160020190805190602001906109d0929190610b64565b5060608201518160030190805190602001906109ed929190610b64565b506080820151816004015560a08201518160050155905050600284604051610a1591906110b3565b90815260200160405180910390206040518060c001604052808973ffffffffffffffffffffffffffffffffffffffff16815260200188815260200187815260200186815260200185815260200183815250908060018154018082558091505060019003906000526020600020906006020160009091909190915060008201518160000160006101000a81548173ffffffffffffffffffffffffffffffffffffffff021916908373ffffffffffffffffffffffffffffffffffffffff1602179055506020820151816001019080519060200190610af2929190610b64565b506040820151816002019080519060200190610b0f929190610b64565b506060820151816003019080519060200190610b2c929190610b64565b506080820151816004015560a08201518160050155505050505050505050565b735b38da6a701c568545dcfcb03fcb875f56beddc481565b828054610b70906113cb565b90600052602060002090601f016020900481019282610b925760008555610bd9565b82601f10610bab57805160ff1916838001178555610bd9565b82800160010185558215610bd9579182015b82811115610bd8578251825591602001919060010190610bbd565b5b509050610be69190610bea565b5090565b5b80821115610c03576000816000905550600101610beb565b5090565b6000610c1a610c1584611244565b611213565b905082815260208101848484011115610c3257600080fd5b610c3d848285611389565b509392505050565b600081359050610c548161149b565b92915050565b600082601f830112610c6b57600080fd5b8135610c7b848260208601610c07565b91505092915050565b600081359050610c93816114b2565b92915050565b600080600080600060a08688031215610cb157600080fd5b6000610cbf88828901610c45565b955050602086013567ffffffffffffffff811115610cdc57600080fd5b610ce888828901610c5a565b945050604086013567ffffffffffffffff811115610d0557600080fd5b610d1188828901610c5a565b935050606086013567ffffffffffffffff811115610d2e57600080fd5b610d3a88828901610c5a565b9250506080610d4b88828901610c84565b9150509295509295909350565b600060208284031215610d6a57600080fd5b600082013567ffffffffffffffff811115610d8457600080fd5b610d9084828501610c5a565b91505092915050565b6000610da58383610ffe565b905092915050565b610db68161134d565b82525050565b610dc58161133b565b82525050565b610dd48161133b565b82525050565b6000610de582611284565b610def81856112a7565b935083602082028501610e0185611274565b8060005b85811015610e3d5784840389528151610e1e8582610d99565b9450610e298361129a565b925060208a01995050600181019050610e05565b50829750879550505050505092915050565b6000610e5a8261128f565b610e6481856112b8565b9350610e74818560208601611398565b610e7d8161148a565b840191505092915050565b6000610e938261128f565b610e9d81856112c9565b9350610ead818560208601611398565b610eb68161148a565b840191505092915050565b6000610ecc8261128f565b610ed681856112da565b9350610ee6818560208601611398565b80840191505092915050565b6000610eff6027836112c9565b91507f4552524f523a20496e636f727265637420616d6f756e74206f6620457468657260008301527f2073656e742120000000000000000000000000000000000000000000000000006020830152604082019050919050565b6000610f656037836112c9565b91507f4552524f523a2043616e6e6f742068617665206d6f7265207468616e206f6e6560008301527f20616374697665207061737320617420612074696d65210000000000000000006020830152604082019050919050565b6000610fcb601f836112c9565b91507f4552524f523a20506173732073656c656369746f6e206e6f742076616c6964006000830152602082019050919050565b600060c0830160008301516110166000860182610dbc565b506020830151848203602086015261102e8282610e4f565b915050604083015184820360408601526110488282610e4f565b915050606083015184820360608601526110628282610e4f565b91505060808301516110776080860182611095565b5060a083015161108a60a0860182611095565b508091505092915050565b61109e8161137f565b82525050565b6110ad8161137f565b82525050565b60006110bf8284610ec1565b915081905092915050565b60006020820190506110df6000830184610dcb565b92915050565b60006020820190506110fa6000830184610dad565b92915050565b600060c0820190506111156000830189610dcb565b81810360208301526111278188610e88565b9050818103604083015261113b8187610e88565b9050818103606083015261114f8186610e88565b905061115e60808301856110a4565b61116b60a08301846110a4565b979650505050505050565b600060208201905081810360008301526111908184610dda565b905092915050565b600060208201905081810360008301526111b181610ef2565b9050919050565b600060208201905081810360008301526111d181610f58565b9050919050565b600060208201905081810360008301526111f181610fbe565b9050919050565b600060208201905061120d60008301846110a4565b92915050565b6000604051905081810181811067ffffffffffffffff8211171561123a5761123961145b565b5b8060405250919050565b600067ffffffffffffffff82111561125f5761125e61145b565b5b601f19601f8301169050602081019050919050565b6000819050602082019050919050565b600081519050919050565b600081519050919050565b6000602082019050919050565b600082825260208201905092915050565b600082825260208201905092915050565b600082825260208201905092915050565b600081905092915050565b60006112f08261137f565b91506112fb8361137f565b9250827fffffffffffffffffffffffffffffffffffffffffffffffffffffffffffffffff038211156113305761132f6113fd565b5b828201905092915050565b60006113468261135f565b9050919050565b60006113588261135f565b9050919050565b600073ffffffffffffffffffffffffffffffffffffffff82169050919050565b6000819050919050565b82818337600083830152505050565b60005b838110156113b657808201518184015260208101905061139b565b838111156113c5576000848401525b50505050565b600060028204905060018216806113e357607f821691505b602082108114156113f7576113f661142c565b5b50919050565b7f4e487b7100000000000000000000000000000000000000000000000000000000600052601160045260246000fd5b7f4e487b7100000000000000000000000000000000000000000000000000000000600052602260045260246000fd5b7f4e487b7100000000000000000000000000000000000000000000000000000000600052604160045260246000fd5b6000601f19601f8301169050919050565b6114a48161133b565b81146114af57600080fd5b50565b6114bb8161137f565b81146114c657600080fd5b5056fea2646970667358221220b37350337b9ada6e8aa7f90fe9514676270f35784cfa8da7a84ce4649318db8d64736f6c63430008000033",
  "immutableReferences": {},
  "source": "// SPDX-License-Identifier: MIT\npragma solidity ^0.8.0;\n\ncontract ParkingPass {\n    //School address should never change\n    address payable constant public schoolAddress = payable(0x5B38Da6a701c568545dCfcB03FcB875f56beddC4);\n    address public studentAddress;\n\n    uint public cost;\n\n    struct ParkingPassInfo \n    {\n        address studentAddress;\n\n        string make;\n        string model;\n        string licensePlate;\n\n        uint passType;\n        uint256 expiration;\n    }\n\n    // Mapping of license plates to parking pass history\n    mapping(string => ParkingPassInfo[]) private allPasses;\n    // Current active pass by license plate\n    mapping(string => ParkingPassInfo) private mostRecentPass;\n\n\n    // Function to buy a pass\n    function buyPass(address _studentAddress, string memory _make, string memory _model, string memory _licensePlate, uint _pass) public payable \n    {\n        uint256 duration;\n        studentAddress = _studentAddress;\n        \n        // Transfer Ether to the school address\n        payable(schoolAddress).transfer(msg.value);\n\n        require(mostRecentPass[_licensePlate].expiration < block.timestamp, \"ERROR: Cannot have more than one active pass at a time!\");\n        require(_pass >=1 && _pass <= 3, \"ERROR: Pass seleciton not valid\");\n\n        // Determine cost and duration based on pass type\n        if (_pass == 1) \n        {\n            duration = 10 seconds;\n            cost = 1 ether;\n        } \n        else if (_pass == 2) \n        {\n            duration = 20 seconds;\n            cost = 2 ether;\n        } \n        else if (_pass == 3) \n        {\n            duration = 30 seconds;\n            cost = 3 ether;\n        }\n\n        //Check for exact Eth amount sent\n        require(msg.value == cost, \"ERROR: Incorrect amount of Ether sent! \");\n        \n        // Set expiration timestamp\n        uint256 expiration = block.timestamp + duration;\n\n        // Update the most recent pass and the history\n        mostRecentPass[_licensePlate] = ParkingPassInfo(_studentAddress, _make, _model, _licensePlate, _pass, expiration);\n        allPasses[_licensePlate].push(ParkingPassInfo( _studentAddress, _make, _model, _licensePlate, _pass, expiration));\n\n    }\n\n    // Function to get the most recent pass for a vehicle\n    function getMostRecentPass(string memory _licensePlate) public view\n        returns (address studentAddr, string memory make, string memory model, string memory licensePlate, uint passType, uint256 expiration)\n    {\n        return (\n            mostRecentPass[_licensePlate].studentAddress,\n            mostRecentPass[_licensePlate].make,\n            mostRecentPass[_licensePlate].model,\n            mostRecentPass[_licensePlate].licensePlate,\n            mostRecentPass[_licensePlate].passType,\n            mostRecentPass[_licensePlate].expiration\n        );\n    }\n\n    // Function to get all passes for a vehicle\n    function getAllPasses(string memory _licensePlate)public view returns (ParkingPassInfo[] memory)\n    {\n        return allPasses[_licensePlate];\n    }\n\n}\n",
  "sourcePath": "/Users/niyantnanavati/ParkingValidatordAPP/CSUS-Parking-DAPP/contracts/project.sol",
  "compiler": {
    "name": "solc",
    "version": "0.8.0+commit.c7dfd78e.Emscripten.clang"
  },
  "schemaVersion": "3.4.16",
  "updatedAt": "2024-11-24T01:24:32.407Z",
  "devdoc": {
    "kind": "dev",
    "methods": {},
    "version": 1
  },
  "userdoc": {
    "kind": "user",
    "methods": {},
    "version": 1
  }
}