{
  "contractName": "ParkingPass",
  "abi": [
    {
      "inputs": [],
      "name": "cost",
      "outputs": [
        {
          "internalType": "uint256",
          "name": "",
          "type": "uint256"
        }
      ],
      "stateMutability": "view",
      "type": "function",
      "constant": true
    },
    {
      "inputs": [],
      "name": "schoolAddress",
      "outputs": [
        {
          "internalType": "address payable",
          "name": "",
          "type": "address"
        }
      ],
      "stateMutability": "view",
      "type": "function",
      "constant": true
    },
    {
      "inputs": [],
      "name": "studentAddress",
      "outputs": [
        {
          "internalType": "address",
          "name": "",
          "type": "address"
        }
      ],
      "stateMutability": "view",
      "type": "function",
      "constant": true
    },
    {
      "inputs": [
        {
          "internalType": "address",
          "name": "_studentAddress",
          "type": "address"
        },
        {
          "internalType": "string",
          "name": "_make",
          "type": "string"
        },
        {
          "internalType": "string",
          "name": "_model",
          "type": "string"
        },
        {
          "internalType": "string",
          "name": "_licensePlate",
          "type": "string"
        },
        {
          "internalType": "uint256",
          "name": "_pass",
          "type": "uint256"
        }
      ],
      "name": "buyPass",
      "outputs": [],
      "stateMutability": "payable",
      "type": "function",
      "payable": true
    },
    {
      "inputs": [
        {
          "internalType": "string",
          "name": "_licensePlate",
          "type": "string"
        }
      ],
      "name": "getMostRecentPass",
      "outputs": [
        {
          "internalType": "address",
          "name": "studentAddr",
          "type": "address"
        },
        {
          "internalType": "string",
          "name": "make",
          "type": "string"
        },
        {
          "internalType": "string",
          "name": "model",
          "type": "string"
        },
        {
          "internalType": "string",
          "name": "licensePlate",
          "type": "string"
        },
        {
          "internalType": "uint256",
          "name": "passType",
          "type": "uint256"
        },
        {
          "internalType": "uint256",
          "name": "expiration",
          "type": "uint256"
        }
      ],
      "stateMutability": "view",
      "type": "function",
      "constant": true
    },
    {
      "inputs": [
        {
          "internalType": "string",
          "name": "_licensePlate",
          "type": "string"
        }
      ],
      "name": "getAllPasses",
      "outputs": [
        {
          "components": [
            {
              "internalType": "address",
              "name": "studentAddress",
              "type": "address"
            },
            {
              "internalType": "string",
              "name": "make",
              "type": "string"
            },
            {
              "internalType": "string",
              "name": "model",
              "type": "string"
            },
            {
              "internalType": "string",
              "name": "licensePlate",
              "type": "string"
            },
            {
              "internalType": "uint256",
              "name": "passType",
              "type": "uint256"
            },
            {
              "internalType": "uint256",
              "name": "expiration",
              "type": "uint256"
            }
          ],
          "internalType": "struct ParkingPass.ParkingPassInfo[]",
          "name": "",
          "type": "tuple[]"
        }
      ],
      "stateMutability": "view",
      "type": "function",
      "constant": true
    },
    {
      "inputs": [],
      "name": "getSchoolBalance",
      "outputs": [
        {
          "internalType": "uint256",
          "name": "",
          "type": "uint256"
        }
      ],
      "stateMutability": "view",
      "type": "function",
      "constant": true
    }
  ],
  "bytecode": "0x608060405234801561001057600080fd5b506115eb806100206000396000f3fe6080604052600436106100705760003560e01c8063b8f31a811161004e578063b8f31a811461011f578063c11c84e01461014a578063cccfc9da14610166578063f70b00db1461019157610070565b806313faede614610075578063a50788c8146100a0578063a52579fc146100dd575b600080fd5b34801561008157600080fd5b5061008a6101bc565b6040516100979190611284565b60405180910390f35b3480156100ac57600080fd5b506100c760048036038101906100c29190610de4565b6101c2565b6040516100d49190611202565b60405180910390f35b3480156100e957600080fd5b5061010460048036038101906100ff9190610de4565b61045f565b6040516101169695949392919061118c565b60405180910390f35b34801561012b57600080fd5b5061013461070b565b6040516101419190611156565b60405180910390f35b610164600480360381019061015f9190610d25565b61072f565b005b34801561017257600080fd5b5061017b610b92565b6040516101889190611171565b60405180910390f35b34801561019d57600080fd5b506101a6610baa565b6040516101b39190611284565b60405180910390f35b60015481565b60606002826040516101d4919061113f565b9081526020016040518091039020805480602002602001604051908101604052809291908181526020016000905b8282101561045457838290600052602060002090600602016040518060c00160405290816000820160009054906101000a900473ffffffffffffffffffffffffffffffffffffffff1673ffffffffffffffffffffffffffffffffffffffff1673ffffffffffffffffffffffffffffffffffffffff16815260200160018201805461028b90611488565b80601f01602080910402602001604051908101604052809291908181526020018280546102b790611488565b80156103045780601f106102d957610100808354040283529160200191610304565b820191906000526020600020905b8154815290600101906020018083116102e757829003601f168201915b5050505050815260200160028201805461031d90611488565b80601f016020809104026020016040519081016040528092919081815260200182805461034990611488565b80156103965780601f1061036b57610100808354040283529160200191610396565b820191906000526020600020905b81548152906001019060200180831161037957829003601f168201915b505050505081526020016003820180546103af90611488565b80601f01602080910402602001604051908101604052809291908181526020018280546103db90611488565b80156104285780601f106103fd57610100808354040283529160200191610428565b820191906000526020600020905b81548152906001019060200180831161040b57829003601f168201915b505050505081526020016004820154815260200160058201548152505081526020019060010190610202565b505050509050919050565b60006060806060600080600387604051610479919061113f565b908152602001604051809103902060000160009054906101000a900473ffffffffffffffffffffffffffffffffffffffff166003886040516104bb919061113f565b90815260200160405180910390206001016003896040516104dc919061113f565b908152602001604051809103902060020160038a6040516104fd919061113f565b908152602001604051809103902060030160038b60405161051e919061113f565b90815260200160405180910390206004015460038c604051610540919061113f565b90815260200160405180910390206005015484805461055e90611488565b80601f016020809104026020016040519081016040528092919081815260200182805461058a90611488565b80156105d75780601f106105ac576101008083540402835291602001916105d7565b820191906000526020600020905b8154815290600101906020018083116105ba57829003601f168201915b505050505094508380546105ea90611488565b80601f016020809104026020016040519081016040528092919081815260200182805461061690611488565b80156106635780601f1061063857610100808354040283529160200191610663565b820191906000526020600020905b81548152906001019060200180831161064657829003601f168201915b5050505050935082805461067690611488565b80601f01602080910402602001604051908101604052809291908181526020018280546106a290611488565b80156106ef5780601f106106c4576101008083540402835291602001916106ef565b820191906000526020600020905b8154815290600101906020018083116106d257829003601f168201915b5050505050925095509550955095509550955091939550919395565b60008054906101000a900473ffffffffffffffffffffffffffffffffffffffff1681565b6000856000806101000a81548173ffffffffffffffffffffffffffffffffffffffff021916908373ffffffffffffffffffffffffffffffffffffffff160217905550735b38da6a701c568545dcfcb03fcb875f56beddc473ffffffffffffffffffffffffffffffffffffffff166108fc349081150290604051600060405180830381858888f193505050501580156107cb573d6000803e3d6000fd5b50426003846040516107dd919061113f565b9081526020016040518091039020600501541061082f576040517f08c379a000000000000000000000000000000000000000000000000000000000815260040161082690611244565b60405180910390fd5b60018210158015610841575060038211155b610880576040517f08c379a000000000000000000000000000000000000000000000000000000000815260040161087790611264565b60405180910390fd5b60018214156108a157600a9050670de0b6b3a76400006001819055506108e1565b60028214156108c25760149050671bc16d674ec800006001819055506108e0565b60038214156108df57601e90506729a2241af62c00006001819055505b5b5b6001543414610925576040517f08c379a000000000000000000000000000000000000000000000000000000000815260040161091c90611224565b60405180910390fd5b600081426109339190611371565b90506040518060c001604052808873ffffffffffffffffffffffffffffffffffffffff16815260200187815260200186815260200185815260200184815260200182815250600385604051610988919061113f565b908152602001604051809103902060008201518160000160006101000a81548173ffffffffffffffffffffffffffffffffffffffff021916908373ffffffffffffffffffffffffffffffffffffffff16021790555060208201518160010190805190602001906109f9929190610bf0565b506040820151816002019080519060200190610a16929190610bf0565b506060820151816003019080519060200190610a33929190610bf0565b506080820151816004015560a08201518160050155905050600284604051610a5b919061113f565b90815260200160405180910390206040518060c001604052808973ffffffffffffffffffffffffffffffffffffffff16815260200188815260200187815260200186815260200185815260200183815250908060018154018082558091505060019003906000526020600020906006020160009091909190915060008201518160000160006101000a81548173ffffffffffffffffffffffffffffffffffffffff021916908373ffffffffffffffffffffffffffffffffffffffff1602179055506020820151816001019080519060200190610b38929190610bf0565b506040820151816002019080519060200190610b55929190610bf0565b506060820151816003019080519060200190610b72929190610bf0565b506080820151816004015560a08201518160050155505050505050505050565b735b38da6a701c568545dcfcb03fcb875f56beddc481565b6000670de0b6b3a7640000735b38da6a701c568545dcfcb03fcb875f56beddc473ffffffffffffffffffffffffffffffffffffffff1631610beb91906113c7565b905090565b828054610bfc90611488565b90600052602060002090601f016020900481019282610c1e5760008555610c65565b82601f10610c3757805160ff1916838001178555610c65565b82800160010185558215610c65579182015b82811115610c64578251825591602001919060010190610c49565b5b509050610c729190610c76565b5090565b5b80821115610c8f576000816000905550600101610c77565b5090565b6000610ca6610ca1846112d0565b61129f565b905082815260208101848484011115610cbe57600080fd5b610cc9848285611446565b509392505050565b600081359050610ce081611587565b92915050565b600082601f830112610cf757600080fd5b8135610d07848260208601610c93565b91505092915050565b600081359050610d1f8161159e565b92915050565b600080600080600060a08688031215610d3d57600080fd5b6000610d4b88828901610cd1565b955050602086013567ffffffffffffffff811115610d6857600080fd5b610d7488828901610ce6565b945050604086013567ffffffffffffffff811115610d9157600080fd5b610d9d88828901610ce6565b935050606086013567ffffffffffffffff811115610dba57600080fd5b610dc688828901610ce6565b9250506080610dd788828901610d10565b9150509295509295909350565b600060208284031215610df657600080fd5b600082013567ffffffffffffffff811115610e1057600080fd5b610e1c84828501610ce6565b91505092915050565b6000610e31838361108a565b905092915050565b610e428161140a565b82525050565b610e51816113f8565b82525050565b610e60816113f8565b82525050565b6000610e7182611310565b610e7b8185611333565b935083602082028501610e8d85611300565b8060005b85811015610ec95784840389528151610eaa8582610e25565b9450610eb583611326565b925060208a01995050600181019050610e91565b50829750879550505050505092915050565b6000610ee68261131b565b610ef08185611344565b9350610f00818560208601611455565b610f0981611576565b840191505092915050565b6000610f1f8261131b565b610f298185611355565b9350610f39818560208601611455565b610f4281611576565b840191505092915050565b6000610f588261131b565b610f628185611366565b9350610f72818560208601611455565b80840191505092915050565b6000610f8b602783611355565b91507f4552524f523a20496e636f727265637420616d6f756e74206f6620457468657260008301527f2073656e742120000000000000000000000000000000000000000000000000006020830152604082019050919050565b6000610ff1603783611355565b91507f4552524f523a2043616e6e6f742068617665206d6f7265207468616e206f6e6560008301527f20616374697665207061737320617420612074696d65210000000000000000006020830152604082019050919050565b6000611057601f83611355565b91507f4552524f523a20506173732073656c656369746f6e206e6f742076616c6964006000830152602082019050919050565b600060c0830160008301516110a26000860182610e48565b50602083015184820360208601526110ba8282610edb565b915050604083015184820360408601526110d48282610edb565b915050606083015184820360608601526110ee8282610edb565b91505060808301516111036080860182611121565b5060a083015161111660a0860182611121565b508091505092915050565b61112a8161143c565b82525050565b6111398161143c565b82525050565b600061114b8284610f4d565b915081905092915050565b600060208201905061116b6000830184610e57565b92915050565b60006020820190506111866000830184610e39565b92915050565b600060c0820190506111a16000830189610e57565b81810360208301526111b38188610f14565b905081810360408301526111c78187610f14565b905081810360608301526111db8186610f14565b90506111ea6080830185611130565b6111f760a0830184611130565b979650505050505050565b6000602082019050818103600083015261121c8184610e66565b905092915050565b6000602082019050818103600083015261123d81610f7e565b9050919050565b6000602082019050818103600083015261125d81610fe4565b9050919050565b6000602082019050818103600083015261127d8161104a565b9050919050565b60006020820190506112996000830184611130565b92915050565b6000604051905081810181811067ffffffffffffffff821117156112c6576112c5611547565b5b8060405250919050565b600067ffffffffffffffff8211156112eb576112ea611547565b5b601f19601f8301169050602081019050919050565b6000819050602082019050919050565b600081519050919050565b600081519050919050565b6000602082019050919050565b600082825260208201905092915050565b600082825260208201905092915050565b600082825260208201905092915050565b600081905092915050565b600061137c8261143c565b91506113878361143c565b9250827fffffffffffffffffffffffffffffffffffffffffffffffffffffffffffffffff038211156113bc576113bb6114ba565b5b828201905092915050565b60006113d28261143c565b91506113dd8361143c565b9250826113ed576113ec6114e9565b5b828204905092915050565b60006114038261141c565b9050919050565b60006114158261141c565b9050919050565b600073ffffffffffffffffffffffffffffffffffffffff82169050919050565b6000819050919050565b82818337600083830152505050565b60005b83811015611473578082015181840152602081019050611458565b83811115611482576000848401525b50505050565b600060028204905060018216806114a057607f821691505b602082108114156114b4576114b3611518565b5b50919050565b7f4e487b7100000000000000000000000000000000000000000000000000000000600052601160045260246000fd5b7f4e487b7100000000000000000000000000000000000000000000000000000000600052601260045260246000fd5b7f4e487b7100000000000000000000000000000000000000000000000000000000600052602260045260246000fd5b7f4e487b7100000000000000000000000000000000000000000000000000000000600052604160045260246000fd5b6000601f19601f8301169050919050565b611590816113f8565b811461159b57600080fd5b50565b6115a78161143c565b81146115b257600080fd5b5056fea26469706673582212208128ad0a3582e78005cd56040e7436c31017e9fcf2294cefe2f55d9dc7b02d5764736f6c63430008000033",
  "immutableReferences": {},
  "source": "// SPDX-License-Identifier: MIT\r\npragma solidity ^0.8.0;\r\n\r\ncontract ParkingPass {\r\n    //School address should never change\r\n    address payable constant public schoolAddress = payable(0x5B38Da6a701c568545dCfcB03FcB875f56beddC4);\r\n    address public studentAddress;\r\n\r\n    uint public cost;\r\n\r\n    struct ParkingPassInfo \r\n    {\r\n        address studentAddress;\r\n\r\n        string make;\r\n        string model;\r\n        string licensePlate;\r\n\r\n        uint passType;\r\n        uint256 expiration;\r\n    }\r\n\r\n    // Mapping of license plates to parking pass history\r\n    mapping(string => ParkingPassInfo[]) private allPasses;\r\n    // Current active pass by license plate\r\n    mapping(string => ParkingPassInfo) private mostRecentPass;\r\n\r\n\r\n    // Function to buy a pass\r\n    function buyPass(address _studentAddress, string memory _make, string memory _model, string memory _licensePlate, uint _pass) public payable \r\n    {\r\n        uint256 duration;\r\n        studentAddress = _studentAddress;\r\n        \r\n        // Transfer Ether to the school address\r\n        payable(schoolAddress).transfer(msg.value);\r\n\r\n        require(mostRecentPass[_licensePlate].expiration < block.timestamp, \"ERROR: Cannot have more than one active pass at a time!\");\r\n        require(_pass >=1 && _pass <= 3, \"ERROR: Pass seleciton not valid\");\r\n\r\n        // Determine cost and duration based on pass type\r\n        if (_pass == 1) \r\n        {\r\n            duration = 10 seconds;\r\n            cost = 1 ether;\r\n        } \r\n        else if (_pass == 2) \r\n        {\r\n            duration = 20 seconds;\r\n            cost = 2 ether;\r\n        } \r\n        else if (_pass == 3) \r\n        {\r\n            duration = 30 seconds;\r\n            cost = 3 ether;\r\n        }\r\n\r\n        //Check for exact Eth amount sent\r\n        require(msg.value == cost, \"ERROR: Incorrect amount of Ether sent! \");\r\n        \r\n        // Set expiration timestamp\r\n        uint256 expiration = block.timestamp + duration;\r\n\r\n        // Update the most recent pass and the history\r\n        mostRecentPass[_licensePlate] = ParkingPassInfo(_studentAddress, _make, _model, _licensePlate, _pass, expiration);\r\n        allPasses[_licensePlate].push(ParkingPassInfo( _studentAddress, _make, _model, _licensePlate, _pass, expiration));\r\n\r\n    }\r\n\r\n    // Function to get the most recent pass for a vehicle\r\n    function getMostRecentPass(string memory _licensePlate) public view\r\n        returns (address studentAddr, string memory make, string memory model, string memory licensePlate, uint passType, uint256 expiration)\r\n    {\r\n        return (\r\n            mostRecentPass[_licensePlate].studentAddress,\r\n            mostRecentPass[_licensePlate].make,\r\n            mostRecentPass[_licensePlate].model,\r\n            mostRecentPass[_licensePlate].licensePlate,\r\n            mostRecentPass[_licensePlate].passType,\r\n            mostRecentPass[_licensePlate].expiration\r\n        );\r\n    }\r\n\r\n    // Function to get all passes for a vehicle\r\n    function getAllPasses(string memory _licensePlate)public view returns (ParkingPassInfo[] memory)\r\n    {\r\n        return allPasses[_licensePlate];\r\n    }\r\n\r\n    // Function to get the balance of the school address\r\n    function getSchoolBalance() public view returns (uint256) {\r\n        return schoolAddress.balance / 1 ether;\r\n    }\r\n\r\n\r\n}\r\n",
  "sourcePath": "C:\\Users\\jacob\\Desktop\\196 Parking Dapp Repo\\CSUS-Parking-DAPP\\contracts\\project.sol",
  "compiler": {
    "name": "solc",
    "version": "0.8.0+commit.c7dfd78e.Emscripten.clang"
  },
  "schemaVersion": "3.4.16",
  "updatedAt": "2024-11-25T04:06:52.473Z",
  "networkType": "ethereum",
  "devdoc": {
    "kind": "dev",
    "methods": {},
    "version": 1
  },
  "userdoc": {
    "kind": "user",
    "methods": {},
    "version": 1
  }
}